
Discarded input sections

 .text          0x0000000000000000        0x0 main.o
 .data          0x0000000000000000        0x0 main.o
 .bss           0x0000000000000000        0x0 main.o
 .comment       0x0000000000000000       0x12 main.o
 .text          0x0000000000000000        0x0 start.o
 .data          0x0000000000000000        0x0 start.o
 .bss           0x0000000000000000        0x0 start.o

Memory Configuration

Name             Origin             Length             Attributes
RAM              0x0000000000000000 0x0000000000020000 xrw
AEE_ROM          0x00000000fffdc000 0x0000000000020000 xr
AEE_RAM          0x00000000ffffc000 0x0000000000004000 rw
*default*        0x0000000000000000 0xffffffffffffffff

Linker script and memory map


.text           0x00000000fffdc000      0x5d4
 *(.init)
 .init          0x00000000fffdc000      0x158 start.o
                0x00000000fffdc000                _start
                0x00000000fffdc044                _machine_exception_handler
 *(.text*)
 .text.uart_tx_hex.constprop.0
                0x00000000fffdc158       0x44 main.o
 .text.uart_tx_string.constprop.0
                0x00000000fffdc19c       0x2c main.o
 .text.delay    0x00000000fffdc1c8       0x54 main.o
                0x00000000fffdc1c8                delay
 .text.exception_handler
                0x00000000fffdc21c       0x20 main.o
                0x00000000fffdc21c                exception_handler
 .text.startup.main
                0x00000000fffdc23c      0x34c main.o
                0x00000000fffdc23c                main
                0x00000000fffdc588                __text_end = .
 *(.rodata*)
 .rodata.uart_tx_hex.constprop.0.str1.4
                0x00000000fffdc588       0x11 main.o
 *fill*         0x00000000fffdc599        0x3 
 .rodata.delay.str1.4
                0x00000000fffdc59c        0x2 main.o
 *fill*         0x00000000fffdc59e        0x2 
 .rodata.main.str1.4
                0x00000000fffdc5a0       0x34 main.o
                                         0x32 (size before relaxing)

.rela.dyn       0x00000000fffdc5d4        0x0
 .rela.init     0x00000000fffdc5d4        0x0 main.o

.data           0x00000000ffffc000        0x0 load address 0x00000000fffdc5d4
                0x00000000ffffc000                __data_begin = .
 *(.data*)
 *(.eh_frame*)
                0x00000000ffffc000                __data_end = ALIGN (0x4)

.bss            0x00000000ffffc000        0x0
                0x00000000ffffc000                __bss_begin = .
 *(.bss*)
 *(.sbss)
                0x00000000ffffc000                __bss_end = ALIGN (0x4)
                0x0000000000000000                __stack_top = 0x0

.sbss.uart0     0x00000000ffffc000        0x4
 .sbss.uart0    0x00000000ffffc000        0x4 main.o

/DISCARD/
 *(.comment)
LOAD main.o
LOAD start.o
LOAD /usr/local/riscv32i/lib/gcc/riscv32-unknown-elf/9.2.0/libgcc.a
START GROUP
LOAD /usr/local/riscv32i/lib/gcc/riscv32-unknown-elf/9.2.0/../../../../riscv32-unknown-elf/lib/libc.a
END GROUP
LOAD /usr/local/riscv32i/lib/gcc/riscv32-unknown-elf/9.2.0/libgcc.a
START GROUP
LOAD /usr/local/riscv32i/lib/gcc/riscv32-unknown-elf/9.2.0/libgcc.a
LOAD /usr/local/riscv32i/lib/gcc/riscv32-unknown-elf/9.2.0/../../../../riscv32-unknown-elf/lib/libc.a
LOAD /usr/local/riscv32i/lib/gcc/riscv32-unknown-elf/9.2.0/../../../../riscv32-unknown-elf/lib/libnosys.a
END GROUP
OUTPUT(app.elf elf32-littleriscv)

.riscv.attributes
                0x0000000000000000       0x1c
 .riscv.attributes
                0x0000000000000000       0x1c main.o
 .riscv.attributes
                0x000000000000001c       0x1a start.o
